:020000040800F2
:10000000980600206501000813150008C9140008AF
:1000100011150008BD020008D918000800000000F2
:10002000000000000000000000000000371500087C
:10003000BF0200080000000035150008391500084F
:100040007F0100087F0100087F0100087F01000890
:100050007F0100087F0100087F0100087F01000880
:100060007F0100087F0100087F0100087F01000870
:100070007F0100087F0100087F0100087F01000860
:100080007F0100087F0100087F0100087F01000850
:100090007F0100087F0100087F0100087F01000840
:1000A0007F0100087F0100087F0100087F01000830
:1000B0007F0100087F0100087F0100087F01000820
:1000C0007F0100087F0100087F0100087F01000810
:1000D0007F010008A91800087F0100087F010008BF
:1000E0007F0100087F0100087F0100080000000078
:1000F0000000000000000000000000000000000000
:1001000000000000000000007F0100087F010008DF
:100110007F0100087F0100087F0100087F010008BF
:100120007F0100087F0100087F0100087F010008AF
:100130007F01000800000000000000007F010008AF
:100140007F0100087F0100087F0100087F0100088F
:10015000DFF80CD000F07AF800480047F9180008E2
:10016000980600200648804706480047FEE7FEE75D
:10017000FEE7FEE7FEE7FEE7FEE7FEE7FEE7FEE757
:10018000BD150008510100082DE9F05F054600206B
:1001900092469B4688460646814640241BE02846F8
:1001A00041464746224600F020F853465A46C01AB8
:1001B000914110D311461846224600F038F82D1A06
:1001C00067EB01084F4622460120002100F02FF87E
:1001D00017EB00094E41201EA4F10104DFDC484664
:1001E00031462A464346BDE8F09F202A04DB203AE8
:1001F00021FA02F00021704721FA02F3D040C2F147
:100200002002914008431946704740EA01039B07CA
:1002100003D009E008C9121F08C0042AFAD203E07B
:1002200011F8013B00F8013B521EF9D27047202A19
:1002300004DB203A00FA02F1002070479140C2F13D
:10024000200320FA03F3194390407047064C074DF2
:1002500006E0E06840F0010394E807009847103496
:10026000AC42F6D3FFF778FFD0190008F019000868
:1002700070B5044600688168C943C9071CD181680C
:1002800021F00101816000F025FB05460FE000BF71
:1002900000F020FB401B022809D9A06A40F01000A2
:1002A000A062E06A40F00100E062012070BD2068B9
:1002B0008068C043C007EBD0002070BDFEE77047E8
:1002C000F8B50024009490F824202546012A12D085
:1002D000012280F824204A681F23072A0DD20668CD
:1002E000776B521E02EB820293409F430B68934050
:1002F0001F43776319E00220F8BD06680D2A0AD271
:10030000376BD21F02EB820293409F430B689340EE
:100310001F43376309E0F76A0D3A02EB820293400C
:100320009F430B6893401F43F7620A6807230668E0
:100330000A2A0AD3F7680A3A02EB420293409F4323
:100340008B6893401F43F76008E0376902EB420275
:1003500093409F438B6893401F4337610A68102A7C
:1003600001D0112A20D1124B02689A4217D193680A
:100370001B0219D4936843F40003936009681029A1
:1003800012D10C490C4A0968B1FBF2F101EB810171
:10039000490000E0491E00910029FBD104E0816A78
:1003A00041F020018162012480F824502046F8BDEC
:1003B000002401400C00002040420F002DE9F041D4
:1003C0004FF0000704003D467ED0A06A002628B901
:1003D000E66284F82460204600F07EF82046FFF7AD
:1003E00047FFA16AC90600D420B1A06A40F01000FE
:1003F000A06269E0A16A21F4885141F00201A16282
:100400006268E169E3680A4347EA43010A43A16875
:100410004FF48077B94209D0012907D05FF000017D
:10042000D4F814C0BCF1010F02D00AE03946F7E756
:10043000F3B1A36A43F02003A362E36A43F001032C
:10044000E3622368D3F804C02CF4694C4CEA010C35
:10045000C3F804C021688B68DFF870C003EA0C039E
:1004600013438B60A168B9420BD0012909D00CE07D
:10047000DFF85CC0A3690CEB43330B4343F400612A
:10048000DFE7218A0D05A5F580152168CB6A23F4E5
:1004900070032B43CB62216889680E4B194091424F
:1004A00008D1E662A16A21F0020141F00101A162D6
:1004B000BDE8F081A06A20F0020040F01000A062C8
:1004C000E06A40F00100E0620120F1E7FDF7E1FFA2
:1004D00000E0FFFFFE0E1FFF00B500680B4985B06E
:1004E000884210D10A48816941F4007181618069B4
:1004F000694600F4007004900F20009003200190E2
:10050000044800F009F905B000BD000000240140D6
:10051000001002400008014070B54379012B1AD049
:100520000124447102230371D1E9003105680B43B2
:10053000296840F6FE769640B143934019432960FE
:1005400001680B68C0259540AB430B600471002126
:100550004171084670BD022070BD70B5040003D023
:100560002079002510B105E0012070BD657120469D
:1005700000F008F802202071256101202071002080
:1005800070BD000000B500680B4985B0884210D1ED
:100590000A48C16941F00051C161C069694600F073
:1005A000005004901020009003200190044800F0B7
:1005B000B3F805B000BD0000007400400010024018
:1005C000000801402DE9F05F90F821100024022975
:1005D00003D004218163012485E001680A6822F0C8
:1005E0000E020A6001680A6822F001020A603F4EAA
:1005F0003E4FB215DFF8F4C0DFF8F090DFF8ECA062
:10060000DFF8E8B0DFF8E4E00168783F1301150295
:10061000ACF1640CA9F15009AAF13C0AABF1280B2A
:10062000AEF1140E4FF48018B14227D9B9420ED062
:10063000614512D049451DD0514518D0594518D0B3
:10064000714501D1424615E0294EB14201D1012246
:1006500010E0274E1436B14201D110220AE0244E98
:100660002836B14206D0224A3C32914201D11A4684
:1006700000E02A461E49091F0A602BE0B94213D048
:10068000614517D0494522D051451DD059451DD04F
:10069000714501D142461AE0B14202D14FF0807259
:1006A00015E0134EB14201D1012210E0104E143674
:1006B000B14201D110220AE00D4E2836B14206D0D7
:1006C0000B4A3C32914201D11A4600E02A460749C2
:1006D00080394A60012180F82110002180F8201023
:1006E000416B01B188472046BDE8F09F8000024081
:1006F0000804024070B5044600F0ECF80546601CA2
:1007000002D004480078044400F0E4F8401BA04202
:10071000FAD370BD000000202DE9F84FDFF890A15A
:1007200000220AF1040B144601274FF00F090BF1C8
:10073000040E00BF0B6807FA04F52B40AB4274D1DE
:10074000DFF870C14E68A6EB0C0866452BD00DDCB7
:10075000032E34D005DC36B3012E19D0022E2FD152
:100760001BE0112E16D0122E2AD119E0B8F5881FE1
:1007700019D006DCB8F5803F15D0B8F5801F1FD121
:1007800011E0B8F5001F0ED0B8F5041F18D10AE02B
:10079000CA6815E0CA68121D12E0CA6808320FE084
:1007A000CA680C320CE08A682AB1012A4FF00802AC
:1007B00003D0456104E0042202E0056100E000226C
:1007C000FF2B01D8064601E000F104064FEA84053C
:1007D00001D9A5F12005D6F800C009FA05F82CEAE0
:1007E000080C02FA05F54CEA050CC6F800C04D6885
:1007F000ED0057D5304DAE6946F00106AE61AD69EA
:1008000024F0030605F0010500952C4D06EB050CC0
:10081000DCF80850A6074FEA167809FA08F6B5433F
:10082000274EB04202D1002610E03BE0254EB042F8
:1008300001D101260AE0244EB04201D1022605E092
:10084000224EB04201D1032600E0042606FA08F643
:100850002E43CCF808604D68DAF80060ED03554689
:1008600001D51E4300E09E432E604D68DBF800601A
:10087000AD035D4601D51E4300E09E432E604D68EA
:10088000DEF80060ED02754601D51E4300E09E4390
:100890002E604D68AD020E4D2E6801D51E4300E05E
:1008A0009E432E60641C102CFFF444AFBDE8F88F0B
:1008B000000401400000111000100240000001403F
:1008C00000080140000C01400010014000140140EC
:1008D0000C040140014880687047000000000020BF
:1008E000024881680278114481607047000000204E
:1008F000074810B5016841F010010160032000F0C5
:100900009DF8002000F006F800F024F8002010BD4B
:100910000020024070B50D4D04464FF47A712878DE
:10092000B1FBF0F00A490968B1FBF0F000F07BFC84
:1009300048B9102C07D200222146501E00F05EF864
:1009400000206C6070BD012070BD00000000002020
:100950000C000020214808B5816941F00101816146
:10096000816901F001010091C16941F08051C161CB
:10097000C06900F080500090032000F05FF8002272
:1009800011466FF00B0000F039F8002211466FF0AD
:100990000A0000F033F8002211466FF0090000F061
:1009A0002DF800221146501F00F028F800221146B1
:1009B000101F00F023F800221146901E00F01EF8D0
:1009C00000221146501E00F019F80548416821F038
:1009D000E06141F08061416008BD0000001002400C
:1009E0000000014000F01F020121914040098000F9
:1009F00000F1E020C0F8001170470000F0B40E4B89
:100A00001B680C46C3F30223C3F10705042D00D96C
:100A10000425191D072901D2002300E0DB1E012651
:100A200006FA05F1491E214099409E40761E164067
:100A30003143F0BC00F06EBD0CED00E0064900F063
:100A4000070208684FF6FF03184040EA0220034AF5
:100A500010430860704700000CED00E00000FA054C
:100A60002DE9F843044600785B4DC0074FF00109BB
:100A700051D0E8690026C00008D4E86940F08050F1
:100A8000E861E869012600F0805000905348016851
:100A9000C90512D40168804641F480710160FFF7F6
:100AA00019FF074605E000BFFFF714FFC01B6428CD
:100AB00077D8D8F80000C005F6D5286A10F4407041
:100AC0001ED0A18801F44071814219D0286A44499E
:100AD00020F44070C1F8009000220A602862C0072C
:100AE0000ED0FFF7F7FE074641F2883805E000BF59
:100AF000FFF7F0FEC11B414553D8286A8007F7D5A0
:100B0000286A616820F44070084328621EB1E869D1
:100B100020F08050E8612078800705D56868A168DA
:100B200020F44040084368602078400705D5E86A13
:100B3000E16820F400300843E8622078000705D51A
:100B4000E86A216920F480200843E862E86A8003AB
:100B500002D4E86A400333D52868C00028D4286846
:100B6000400105D5E86AA16900F0F000884225D16E
:100B7000E86AA16920F0F0000843E862E86A616968
:100B800020F470400843E8621649C1F87090FFF7FE
:100B9000A1FE064608E004E0FFF79CFE801B6428E7
:100BA00002D90320BDE8F88328688000F4D507E067
:100BB000E86A616900F47040884201D00120F1E7E1
:100BC0002078C00605D56868E16920F480000843F4
:100BD00068600020E6E7000000100240007000405E
:100BE00040044242000042422DE9F047DFF83C81D8
:100BF00005460E46D8F8000000F00700B0420CD2BF
:100C0000D8F8001021F007013143C8F80010D8F8D7
:100C1000000000F00700B04263D12878444C800700
:100C200005D56068A96820F0F00008436060287866
:100C3000C00745D06868012816D02168022816D060
:100C4000890700294DDA616821F0030101436160E1
:100C5000FFF740FE6968074641F2883001290FD04E
:100C60000229814619D027E021688903E9E7890133
:100C7000E7E700BFFFF72EFEC11B494501D918E089
:100C800081466068C0F381000128F3D118E000BFFD
:100C9000FFF720FEC11B49450BD86068C0F38100F7
:100CA0000228F5D10CE000BFFFF714FEC11B494537
:100CB00002D90320BDE8F087606810F00C0FF3D173
:100CC000D8F80010404601F00701B1420BD9016885
:100CD00021F0070131430160006800F00700B042D5
:100CE00001D00120E6E72878400705D56068E9686B
:100CF00020F4E060084360602878000706D560684B
:100D0000296920F4605040EAC100606000F03CF8BE
:100D10006168084AC1F30311515CC8400649086084
:100D20000020FFF7F7FD0020C4E70000002002408C
:100D300000100240B81900080C00002001480068AB
:100D4000704700000C00002004480549006849680D
:100D5000044AC1F30221515CC84070470C000020D6
:100D600000100240C8190008044805490068496895
:100D7000044AC1F3C221515CC84070470C000020F6
:100D800000100240C8190008F0B523A289B00FCAAC
:100D900004AC84E80F0024A10FC98DE80F00264998
:100DA0004A68264802F00C03042B2FD0082B2DD1C3
:100DB00004A8C2F38343C45CD00329D5C86A00F0F9
:100DC0000F001DF80020C86AC00316D5C86AC96A9A
:100DD000C0F30310C1F30321401C891CA0FB0223B4
:100DE000A1FB0416154F0025A1FB070C06FB07C647
:100DF00001FB0561FFF7C8F903E010486043B0FB51
:100E0000F2F09DF81D10A14200D1400809B0F0BDDC
:100E10000B486043FAE700000000040506070809D4
:100E200000000000000D0000010203040506070891
:100E3000090A0B0C0D0E0F100010024000127A0070
:100E400000093D002DE9F84F04460078EA4DC0073F
:100E500048D06868C0F38100012807D06868C0F3F3
:100E60008100022809D16868C00306D5286880037C
:100E700038D5A06800286FD034E0A068B0F5803F76
:100E80000BD010B1B0F5A02F11D0286820F480301D
:100E90002860286820F4802002E0286840F4803030
:100EA0002860A06888B1FFF715FD064609E02868AC
:100EB00040F480202860F0E7FFF70CFD801B6428D9
:100EC00078D828688003F7D50CE0FFF703FD0646C5
:100ED00005E000BFFFF7FEFC801B6428F0D82868FF
:100EE0008003F7D42078C54E80074FF001094FF0FA
:100EF00000073CD5686810F00C0F07D06868C0F395
:100F00008100022809D16868C00306D428688007D8
:100F100015D5606901281FD111E06069B8B1C6F824
:100F20000090FFF7D7FC804606E000BFFFF7D2FC39
:100F3000A0EB08000228C3D828688007F6D52868E7
:100F4000A16920F0F80040EAC10028600FE0376096
:100F5000FFF7C0FC804607E02DE100BFFFF7BAFCB9
:100F6000A0EB08000228ABD828688007F6D42078C8
:100F700000072ED5A248E169E9B1C0F80090FFF75B
:100F8000A9FC804606E000BFFFF7A4FCA0EB080028
:100F9000022895D8686A8007F6D59A484FF4FA5126
:100FA0000068B0FBF1F0009000BF0098411E009176
:100FB000FAD20EE0B0E00760FFF78CFC804605E057
:100FC000FFF788FCA0EB0800022887D8686A800732
:100FD000F6D42078400763D5E8694FF00008C000D8
:100FE00009D4E86940F08050E861E8694FF00108F1
:100FF00000F08050009084480168C90512D401684F
:10100000834641F480710160FFF764FC824605E08D
:10101000FFF760FCA0EB0A0064287DD8DBF8000035
:10102000C005F5D5206901280AD008B1052813D0DC
:10103000286A20F001002862286A20F0040002E0FB
:10104000286A40F001002862206941F2883B98B18B
:10105000FFF740FC82460BE0286A40F0040028625B
:10106000EEE700BFFFF736FCA0EB0A01594553D865
:10107000286A8007F6D50CE0FFF72CFC824605E0D5
:10108000FFF728FCA0EB0A01594545D8286A8007DC
:10109000F6D4B8F1000F03D0E86920F08050E86181
:1010A000E06AD0B36968C90307D56968C1F38101F3
:1010B000022902D1E96AC9037DD4022808D0E86A6E
:1010C00020F48030E862B766FFF704FC80463BE01E
:1010D0002868C00005D5E86A616B00F0F00088421E
:1010E00069D1B766FFF7F6FB804605E0FFF7F2FB34
:1010F000A0EB0800642874D828680001F6D4E86AD8
:10110000616B20F0F0000843E862E86A216B20F48C
:1011100070600843E86201E063E018E0C6F8689098
:10112000FFF7D8FB804605E0FFF7D4FBA0EB0800F3
:10113000642856D828680001F6D508E0FFF7CAFBF6
:10114000A0EB080064284CD828680001F6D4206A77
:1011500090B36968C1F3810102294AD00228376639
:1011600003D0FFF7B7FB04463EE0FFF7B3FB0746AB
:1011700005E000BFFFF7AEFBC01B022831D828688E
:101180008001F7D4606AB0F5803F09D1E86A6168F0
:101190000843E862E86AE16820F00F000843E8626B
:1011A000D4E909010843696821F4741108436860AF
:1011B000C6F8609001E01CE019E0FFF78BFB0446E5
:1011C00005E000BFFFF786FB001B022809D828684E
:1011D0008001F7D50BE000BFFFF77CFB001B022866
:1011E00002D90320BDE8F88F28688001F4D40020DC
:1011F000F8E70120F6E7000000100240000042423C
:10120000800442420C000020007000404FF0E021BA
:101210000428086903D020F004000861704740F0FA
:101220000400FAE7704710B5401EB0F1807F01D38B
:10123000012010BD4FF0E02460610F21601700F025
:1012400069F90020A06107202061002010BD10B5C1
:10125000FFF7E8FF10BD704770B5026804461068DC
:10126000D168536910F00F0F50D003F0010501F45D
:10127000907635435DD0C20705D0CA0503D5E26B31
:1012800042F00102E263420705D5DA0703D0E26BC0
:1012900042F00202E263820705D5DA0703D0E26B6F
:1012A00042F00402E263020705D5DA0703D0E26BDD
:1012B00042F00802E263E26B002A33D0800604D5D4
:1012C000880602D5204600F0B9F920684069E16B34
:1012D000C0F38010090700D428B3204600F0A0F91D
:1012E0002068416949061AD5416921F040014161F0
:1012F000606BA0B11B494163606BFFF763F9002885
:1013000010D0606B416BBDE870400847830610D574
:101310008B060ED52046BDE8704000F08FB9204600
:10132000FFF799FF70BD2046FFF795FF0020E063AF
:1013300070BD030606D50B0604D52046BDE87040F7
:1013400000F080BA4006F3D54806F1D5D1682046B2
:1013500021F04001D160202184F8391000F0B3F869
:1013600070BD00001116000870B5040004D094F898
:101370003900002510B106E0012070BD84F8385016
:10138000204600F023F8242084F839002068C16842
:1013900021F40051C160204600F09CF920680169E9
:1013A00021F4904101612068416921F02A014161E5
:1013B0002068C16841F40051C160E563202084F8D1
:1013C000390084F83A00002070BD000010B50068B4
:1013D000154986B0884225D11448816941F480417D
:1013E00081618069124C00F4804004904FF40070D9
:1013F0000090022001900320039069462046FFF7E9
:101400008BF900212015CDE90001029169462046A3
:10141000FFF782F9002211462520FFF7EFFA252079
:10142000FFF7E0FA06B010BD00380140001002409E
:101430000008014090F83A30202B22D1F9B1F2B1E6
:1014400090F83830012B1CD081628285C285002142
:10145000C163222280F83A2080F838100168CA68F7
:1014600042F48072CA6001684A6942F001024A612E
:101470000068C16841F02001C16000207047012070
:10148000704702207047704790F83930202B18D1F0
:10149000A9B1A2B190F83830012B12D00162828438
:1014A000C2840021C163212280F8392080F83810DD
:1014B0000068C16841F08001C160002070470120D0
:1014C0007047022070477047FEE700003EB50F48A6
:1014D00000240D498460C4604461016001250561F8
:1014E0004FF460214460C161FEF768FF00B1FEE780
:1014F000CDE90045694605480294FEF7E1FE002863
:1015000000D0FEE73EBD0000002401401000002096
:10151000FEE770470907090E002806DA00F00F0001
:1015200000F1E02080F8141D704700F1E02080F801
:10153000001470477047704710B5FFF7D1F9BDE848
:101540001040FFF784BE000070B59CB00024022557
:1015500001261020089400950B94CDE9056068469B
:10156000FFF770FC00B1FEE70F20CDE90E041094E8
:10157000119400210EA81294FFF736FB00B1FEE78C
:1015800013A813951594FFF76BFA00B1FEE7FFF768
:10159000D5FB4FF47A71B0FBF1F0FFF744FE042065
:1015A000FFF734FE0448066700221146501EFFF77D
:1015B00025FA1CB070BD00000000424210480168CE
:1015C00041F00101016041680E4A1140416001682B
:1015D0000D4A11400160016821F4802101604168D9
:1015E00021F4FE014160016821F0A05101604FF437
:1015F0007F0181600021C1620449C0030860704717
:10160000001002400000FFF0FFFFF6FE08ED00E0D2
:1016100010B5406A0021C185C184FFF71CFE10BDD2
:101620000168CA6822F49072CA6001684A6922F0AF
:1016300001024A61202180F83A10704710B590F8F5
:101640003A10222901D0022010BD8168B1F5805FD7
:1016500011D00169002901681FD0496801F07F039A
:10166000816A4A1C82620B70C18D491E0904090CF3
:10167000C18518D02BE00269816A002A026852688D
:1016800005D0D2B20A80816A491C8162ECE7C2F3BC
:1016900008020A80816A891CF7E74A68816A4B1C44
:1016A00083620A70E0E70168CA6822F02002CA601B
:1016B0000168CA6822F48072CA6001684A6922F02F
:1016C00001024A61202180F83A10FFF7DCFE002079
:1016D00010BD00002DE9F041044600680169E26890
:1016E00021F44051114301612169A06808436169F7
:1016F00008432168CA6841F20C639A430243CA60F6
:1017000020684169A26921F44071114341614C494B
:1017100020686425322688423CD1FFF725FB00EB88
:10172000C00101EB001061688900B0FBF1F7FFF721
:101730001BFB00EBC00101EB00106168B0468900A3
:10174000B0FBF1F0B0FBF5F06FF01801484307EB88
:10175000800106EB0110B0FBF5F000F0F006FFF79A
:1017600003FB00EBC00101EB001061688900B0FBD6
:10177000F1F0B0FBF5F006EB0016FFF7F5FA00EB21
:10178000C00101EB001061688900B0FBF1F7FFF7C1
:10179000EBFA3BE0FFF7D8FA00EBC00101EB0010D9
:1017A00061688900B0FBF1F7FFF7CEFA00EBC001EA
:1017B00001EB00106168B0468900B0FBF1F0B0FBAE
:1017C000F5F06FF01801484307EB800106EB0110BC
:1017D000B0FBF5F000F0F006FFF7B6FA00EBC00141
:1017E00001EB001061688900B0FBF1F0B0FBF5F08F
:1017F00006EB0016FFF7A8FA00EBC00101EB0010A2
:1018000061688900B0FBF1F7FFF79EFA00EBC001B9
:1018100001EB001061688900B0FBF1F0B0FBF5F05E
:101820006FF01801484307EB800108EB0110B0FB93
:10183000F5F0216800F00F0030448860BDE8F081C9
:101840000038014090F83910212901D0022070475A
:101850008168B1F5805F016A0BD04A1C02620268A0
:1018600009785160C18C491E0904090CC1840ED04D
:1018700017E009880268C1F3080151600169002975
:10188000016A02D0491C0162ECE7891CFBE7016890
:10189000CA6822F08002CA600068C16841F0400155
:1018A000C1600020704700000148FFF7D5BC000070
:1018B0005400002010B5014680220648FFF7BAFD0B
:1018C000044890F82C10C28D891A0022C2858285A6
:1018D00048B210BD54000020FEE702E008C8121F05
:1018E00008C1002AFAD170477047002001E001C109
:1018F000121F002AFBD170471CB50024FEF7F8FF29
:10190000FFF722FE2748816941F004018161806967
:1019100000F004000090FFF7D9FD24492248086038
:101920000846FEF71AFE00B1FEE7002500952A469C
:1019300069461E480195FEF7EFFD00B1FEE71B4822
:101940001B49143001604FF4E131C0E901150C214D
:10195000C560C0E904518561C561FFF705FD00B1AF
:10196000FEE7124A543202F58071601C10550D5585
:10197000C4B2202CF9D36420FEF7BCFE0D48FFF75B
:1019800099FF10F0FF04F6D00A492246A1F58070B5
:10199000FEF73BFC054922465431A1F14000FFF718
:1019A00073FDE8E700100240007400404000002092
:1019B00000380140940100200000000000000000F9
:1019C00001020304060708090000000001020304E5
:1019D000F01900080000002010000000DA180008CC
:1019E000001A00081000002088060000EA1800080D
:1019F00001000000100000000000000000A24A04E6
:04000005080001519D
:00000001FF
